:100000003CC000000C9459090C9459090C945909EE
:100010000C9459090C9459090C9459090C945909D8
:100020000C9459090C9459090C9459090C945909C8
:100030000C9459090C9459090C9459090C945909B8
:100040000C9459090C9459090C9459090C945909A8
:100050000C9459090C9459090C9459090C94590998
:100060000C9459090C9459090100011980011901D6
:100070004D0012B6014D0193800011241FBECFEF39
:10008000D8E0DEBFCDBFE8E6F0E040E017C0B591B4
:10009000A59135912591059107FD0CC0959185910C
:1000A000EF01F92FE82F05900D92A217B307D9F7AA
:1000B000FE0104C01D92A217B307E1F7E937F40768
:0A00C00031F703D000C0F894FFCF21
:1000CA00109201011092000141E065E081E04CD0FC
:1000DA0041E062E083E048D041E063E083E044D05D
:1000EA0041E064E083E040D041E065E083E03CD059
:1000FA0041E067E083E038D080E058D12FE38DE01B
:10010A0093E0215080409040E1F700C0000038D1D0
:10011A0060E875E280E090E0C5D0C1E0D0E080916F
:10012A00000190910101892B69F08091C600813309
:10013A0081F08233A1F7E7D080910001909101010B
:10014A00892B99F716D1D0930101C093000181330D
:10015A0081F740E065E081E056D041D141E065E0B9
:08016A0081E051D099D2DBCFF6
:100172009FEF980F933090F4683080F441110FC0D4
:10018200823091F18330D9F42AB181E090E001C04C
:10019200880F6A95EAF7809582238AB908954130DB
:1001A200E9F78230B9F0833049F52AB181E090E075
:1001B20001C0880F6A95EAF7822B8AB9EFCF24B182
:1001C20081E090E001C0880F6A95EAF7809582236A
:1001D20084B9089527B181E090E001C0880F6A9543
:1001E200EAF7822B87B9089527B181E090E001C038
:1001F200880F6A95EAF780958223F4CF24B181E0D3
:0E02020090E001C0880F6A95EAF7822BE1CFE9
:100210009FEF980F9330A0F4683090F4413089F04C
:1002200041110EC0823079F18330C9F42BB181E0E5
:1002300090E001C0880F6A95EAF7809582238BB918
:100240000895823059F18330A9F42BB181E090E018
:1002500001C0880F6A95EAF7822B8BB9F1CF25B1DF
:1002600081E090E001C0880F6A95EAF780958223CB
:1002700085B9089525B181E090E001C0880F6A95A5
:10028000EAF7822BF5CF28B181E090E001C0880F1A
:100290006A95EAF78095822388B9089528B181E0AC
:0E02A00090E001C0880F6A95EAF7822BF5CF37
:1002AE00E1ECF0E020812861208326E02093C2005B
:1002BE00DC01CB01880F991FAA1FBB1F880F991F46
:1002CE00AA1FBB1F9C01AD01220F331F441F551FD8
:1002DE00220F331F441F551F60E074E284EF90E03D
:1002EE0096D28FEF820F8093C400DA01C901019775
:1002FE00A109B109892F9A2FAB2FBB278093C50077
:02030E00089550
:10031000CF9380E050D08091C6008133D9F0809196
:10032000C60080931A01909119018917A1F38133B6
:1003300091F396D2C0911A01C533B1F068F4C3337A
:1003400089F0C43341F79CD2C09319018091C60053
:10035000813329F7CF910895C63371F0C733D9F6A9
:100360009FD2F2CF7DD2F0CFABD287EA91E6019750
:0C037000F1F700C00000F4CFB3D2F7CFCB
:0E037C008091C00087FFFCCF8091C6000895DD
:10038A0041E066E083E0F0DE84B5816084BD84B537
:10039A00826084BD85B5886085BD84B5806484BD6E
:0C03AA0085B5816085BD80E587BD0895A4
:1003B600CF93C82FA2D2CC2389F0CA3561F0C63AB2
:1003C60011F0CF91089585E990E09093890080938C
:1003D6008800CF91089587E592E0F7CF8DE591E00B
:0203E600F4CF52
:1003E8002F923F924F925F926F927F928F929F923D
:1003F800AF92BF92CF92DF92EF92FF920F931F932B
:10040800CF93DF93CDB7DEB762970FB6F894DEBF10
:100418000FBECDBF80913B0190913C011816190683
:100428000CF007C18091C600823309F402C1612C27
:10043800712C2E0121E1420E511C0ED231D3809332
:1004480002018823D1F38091910190919201019644
:100458008370907897FD17C190930C0180930B01DE
:10046800BDD264E670E0CAD2BC01990F880B990B23
:10047800DAD220E030E048EC52E410D39B01AC0122
:1004880060930D0170930E0180930F0190931001FA
:1004980060913D0170913E0180913F019091400132
:1004A800A9D287FFDFC0A0919101B0919201A295D6
:1004B800B295B07FBA27A07FBA27A15BBE4FFE01D5
:1004C80031964D915D916D917D91419351936193D9
:1004D8007193E415F505A9F729803A80CB80DC8073
:1004E8007E0185E0E80EF11C01E010E0F701819043
:1004F8009190A190B1907F019101A601C501B4012D
:1005080079D2181624F4098B1A8B140165010F5F30
:100518001F4F0430110551F7F989F0938F012A898B
:10052800209390018F2F922F8230910509F4A7C054
:100538008330910509F4A5C0019709F49DD18FE78F
:1005480094E8EEE181509040E040E1F700C00000FF
:10055800A3D1E0919101F0919201EE0FFF1FEE0FF0
:10056800FF1F80918F0190919001E80FF91FEE0F06
:10057800FF1FE55EFE4F8081918190930401809377
:100588000301FFE926E881E0F15020408040E1F7CF
:1005980000C000008090410190904201A09043016A
:1005A800B0904401C0904501D0904601E0904701C9
:1005B800F0904801009103011091040120918F01EE
:1005C8003091900140910B0150910C016091910183
:1005D800709192018FE491E0A3D280910B019091E8
:1005E8000C01909392018093910128E431EE4AE73F
:1005F8005FE360913D0170913E0180913F019091D0
:1006080040016BD360933D0170933E0180933F019D
:10061800909340019FEF691A790A80913B0190916C
:100628003C01681679062CF48091C600823309F0E3
:1006380004CF62960FB6F894DEBF0FBECDBFDF9130
:10064800CF911F910F91FF90EF90DF90CF90BF90C7
:10065800AF909F908F907F906F905F904F903F905A
:100668002F903DC3BBD18370907897FD11C09093B4
:10067800900180938F018230910509F059CF1CD1E8
:100688005ECF2AD15CCF01978C6F9F6F0196E4CE25
:0A06980001978C6F9F6F0196EACF67
:1006A2002F923F924F925F926F927F928F929F9280
:1006B200AF92BF92CF92DF92EF92FF920F931F936E
:1006C200CF93DF93CDB7DEB760970FB6F894DEBF56
:1006D2000FBECDBF67D36E0121E1C20ED11C06C091
:1006E200BED0E1D18093020181111DC08091C6006C
:1006F2008233B1F760960FB6F894DEBF0FBECDBF5E
:10070200DF91CF911F910F91FF90EF90DF90CF90EB
:10071200BF90AF909F908F907F906F905F904F901F
:100722003F902F900895BBD08FEB97E2E9E0815084
:100732009040E040E1F700C00000FAD290939201AD
:100742008093910182959295907F9827807F982738
:10075200FC01E15BFE4FDE011196419151916191E5
:1007620071914D935D936D937D93AC15BD05A9F782
:1007720029803A808B809C807E01F5E0EF0EF11C8F
:1007820001E010E0F70141905190619071907F017A
:100792009101A401C301B20130D118161CF4580111
:1007A200120143010F5F1F4F0430110559F7B09238
:1007B2009001A0928F01F2E0AF16B10409F123E09B
:1007C200A216B10481F081E0A816B10409F457D051
:1007D200EFE7F4E82EE1E150F0402040E1F700C0FD
:1007E20000005DD083CF4BD02FEB87E299E0215000
:1007F20080409040E1F700C0000051D070D0E8CFB7
:100802003ED09FEBE7E2F9E09150E040F040E1F7A3
:0A08120000C0000044D053D0DBCF3B
:10081C00A1E21A2EAA1BBB1BFD010DC0AA1FBB1FF8
:10082C00EE1FFF1FA217B307E407F50720F0A21B6A
:10083C00B30BE40BF50B661F771F881F991F1A94D7
:10084C0069F760957095809590959B01AC01BD0101
:04085C00CF0108952B
:1008600041E062E083E0D4DC40E063E083E0D0DCA0
:1008700041E064E083E0CCDC40E065E083E0C8CCAC
:1008800040E062E083E0C4DC41E063E083E0C0DCA0
:1008900040E064E083E0BCDC41E065E083E0B8CCAC
:1008A00040E062E083E0B4DC40E063E083E0B0DCA1
:1008B00040E064E083E0ACDC40E065E083E0A8CCAD
:1008C00041E062E083E0A4DC40E063E083E0A0DCA0
:1008D00040E064E083E09CDC41E065E083E098CCAC
:1008E00040E062E083E094DC41E063E083E090DCA0
:1008F00041E064E083E08CDC40E065E083E088CCAC
:1009000041E061E081E035DCE1E8F0E08081816098
:10091000808380818260808380818B7F8083A0E858
:10092000B0E08C9182608C9380818860808380812C
:10093000806180838C918F7B8C938C9180688C9369
:1009400087E893E19093870080938600109285005A
:06095000109284000895DE
:100956008F929F92AF92BF92CF92DF92EF92FF92C9
:10096600CF93DF93EC01688179818A819B81611540
:1009760071058105910521F464E279ED8BE597E037
:100986002DE133EF41E050E042D249015A019B018B
:10099600AC01A7EAB1E42BD26B017C01ACEEB4EF5B
:1009A600A501940130D2DC01CB018C0D9D1DAE1D3D
:1009B600BF1DB7FF03C00197A109B048888399837B
:1009C600AA83BB839F77DF91CF91FF90EF90DF9053
:1009D600CF90BF90AF909F908F900895B9CF89E444
:1009E60091E0B6CFA0E0B0E0E9E4F1E08083918346
:0609F600A283B383089503
:0809FC001FD208F48FEF0895EB
:100A040097FB072E16F4009406D077FD08D038D251
:100A140007FC05D03EF4909581959F4F08957095FD
:060A240061957F4F08956B
:100A2A00E89409C097FB3EF490958095709561957E
:100A3A007F4F8F4F9F4F9923A9F0F92F96E9BB2734
:100A4A009395F695879577956795B795F111F8CFB0
:100A5A00FAF4BB0F11F460FF1BC06F5F7F4F8F4F1B
:100A6A009F4F16C0882311F096E911C0772321F011
:100A7A009EE8872F762F05C0662371F096E8862FA9
:100A8A0070E060E02AF09A95660F771F881FDAF700
:0A0A9A00880F9695879597F9089547
:040AA40014D202C2A4
:100AA800CF93DF937ED290930601809305019093B4
:100AB8004E0180934D018832910574F11092020124
:100AC800C4E6D0E0BE019ADF862F64D280914D0142
:100AD80090914E01BE0192DF90934E0180934D019B
:100AE800CAE0D0E0BE018ADF862F54D280914D0142
:100AF80090914E01BE0182DF80934D0190934E018B
:100B080049D283EC99E00197F1F700C00000809189
:100B18000201DF91CF91089521E020930201D0CF07
:100B28002F923F924F925F926F927F928F929F92F5
:100B3800AF92BF92CF92DF92EF92FF920F931F93E3
:100B4800CF93DF93CDB7DEB76C970FB6F894DEBFBF
:100B58000FBECDBF1C8F0B8F62957295707F762765
:100B6800607F7627220F331F220F331F620F731FF8
:100B7800860F971F9A8F898FDC018D919D910D901B
:100B8800BC91A02D8D8B9E8BAF8BB88F809311015C
:100B980090931201A0931301B0931401DA01A29566
:100BA800B295B07FBA27A07FBA27A15BBE4FFE01DE
:100BB80031962E0121E1420E511C4D915D916D91AE
:100BC8007D914193519361937193E415F505A9F7CC
:100BD80019810A813B802C803E0135E0630E711C2F
:100BE8005C8A4B8A398A2A8AD3012D903D904D9090
:100BF8005D903D01212F302F49895A89C201B101E9
:100C0800F9DE181624F4122D032D498A5A8AEB8925
:100C1800FC896E167F0641F739882A88812F902F24
:100C2800A32DB22D8093150190931601A09317015F
:100C3800B09318012B8D3C8DB901330F880B990B9C
:100C4800F2DE2B013C01212F302F432D522DC501FF
:100C5800B40143D09B01AC01C301B201DAD1A701B1
:100C680096013BD04B015C01A701960160E070E062
:100C780080E89FE3CDD12D893E894F89588D2DD0AD
:100C88009B01AC01C501B401C4D160930701709305
:100C980008018093090190930A01A98DBA8D6D937B
:100CA8007D938D939C9313976C960FB6F894DEBF43
:100CB8000FBECDBFDF91CF911F910F91FF90EF90A5
:100CC800DF90CF90BF90AF909F908F907F906F9064
:0A0CD8005F904F903F902F90089519
:040CE2009FD1E3C0FB
:100CE600EF92FF920F931F93CF93DF93C0E0D0E074
:100CF6008E01015B1E4F7E01F0E1EF0EF11CF80143
:100D060041915191619171918F01CE01E9D1249662
:100D1600EC16FD06A1F7E701C034D10549F7DF91CE
:0C0D2600CF911F910F91FF90EF90089566
:100D3200CF93DF938AE53EDB2FE382E49FE02150ED
:100D420080409040E1F700C00000ADDED82F86EA77
:100D520031DB2FE382E49FE0215080409040E1F7B5
:100D620000C00000A0DEC82F80E024DB2FE382E475
:100D72009FE0215080409040E1F700C00000D11177
:100D820005C08C2F90E0DF91CF910895CC2329F0FC
:100D920083E090E0DF91CF91089582E090E0DF91CF
:040DA200CF91089550
:100DA600EF92FF920F931F93CF93DF93C0E0D0E0B3
:100DB6008E01015B1E4F7E01F0E1EF0EF11CBE01BC
:100DC60080E893D1F80161937193819391938F0198
:100DD6002496EC16FD0699F7E701C034D10541F7D4
:0E0DE600DF91CF911F910F91FF90EF90089534
:100DF40083D1A59F900DB49F900DA49F800D911D4C
:040E04001124089518
:0C0E0800B7FFF4CFF3DF821B930B0895BB
:100E1400052E97FB16F400947ED157FD05D0FCDC1B
:100E240007FC02D046F477C1509540953095219542
:080E34003F4F4F4F5F4F08953F
:100E3C00990F0008550FAA0BE0E8FEEF16161706DF
:100E4C00E807F907C0F012161306E407F50798F047
:100E5C00621B730B840B950B39F40A2661F0232B60
:100E6C00242B252B21F408950A2609F4A140A695DC
:080E7C008FEF811D811D089517
:100E8400AA1BBB1B51E107C0AA1FBB1FA617B707AC
:100E940010F0A61BB70B881F991F5A95A9F78095C8
:080EA4009095BC01CD010895F9
:100EAC00092E0394000C11F4882352F0BB0F40F46C
:100EBC00BF2B11F460FF04C06F5F7F4F8F4F9F4FAC
:020ECC00089587
:100ECE000BC065D140F037D130F021F45F3F19F0FF
:100EDE0025C151112AC136C138D198F39923C9F3CE
:100EEE005523B1F3951B550BBB27AA276217730722
:100EFE00840738F09F5F5F4F220F331F441FAA1FD6
:100F0E00A9F333D00E2E3AF0E0E830D09150504095
:100F1E00E695001CCAF729D0FE2F27D0660F771F43
:100F2E00881FBB1F261737074807AB07B0E809F025
:100F3E00BB0B802DBF01FF2793585F4F2AF09E3FBA
:100F4E00510568F0EBC0F1C05F3FECF3983EDCF367
:100F5E00869577956795B795F7959F5FC9F7880F33
:100F6E00911D9695879597F90895E1E0660F771F85
:100F7E00881FBB1F621773078407BA0720F0621B16
:0E0F8E00730B840BBA0BEE1F88F7E0950895E5
:0E0F9C009091C00095FFFCCF8093C600089591
:100FAA0010928000B59A41E067E083E02CD98FEC7B
:100FBA0097E00197F1F700C0000040E067E083E0A6
:100FCA0022D982EC80938100B59BFECF8091860066
:100FDA0090918700B59A22E820938100B59BFECFB5
:100FEA002091860030918700B59A10928500109260
:100FFA00840010928100281B390BA8E2B7E879D047
:0E100A0020E039E04DE350E004DCC901089518
:0A1018005058BB27AA27C5D045CFCA
:101022000AC08FD028F0B9D018F0952309F07CC0FF
:101032008FC0112480C08FD0A0F3959FD1F3950F5C
:1010420050E0551F629FF001729FBB27F00DB11D4A
:10105200639FAA27F00DB11DAA1F649F6627B00DDA
:10106200A11D661F829F2227B00DA11D621F739FC3
:10107200B00DA11D621F839FA00D611D221F749FD1
:101082003327A00D611D231F849F600D211D822F18
:10109200762F6A2F11249F5750408AF0E1F088235F
:1010A2004AF0EE0FFF1FBB1F661F771F881F91506C
:1010B2005040A9F79E3F510570F036C03CC05F3FDB
:1010C200ECF3983EDCF3869577956795B795F7959F
:1010D200E7959F5FC1F7FE2B880F911D9695879527
:0410E20097F90895DD
:0A10E600242FC2D0252FC0D0CCC0AB
:0C10F000CB01A6E1B0E044E050E0CDC030
:1010FC00A29FB001B39FC001A39F700D811D11244D
:0E110C00911DB29F700D811D1124911D08953B
:10111A0090958095709561957F4F8F4F9F4F089559
:0C112A0097F99F6780E870E060E008958E
:0E113600E894BB2766277727CB0197F9089529
:0E11440000240A9416161706180609060895C8
:061152009FEF80EC089500
:1011580057FD9058440F551F59F05F3F71F0479560
:10116800880F97FB991F61F09F3F79F08795089545
:10117800121613061406551FF2CF4695F1DF08C064
:10118800161617061806991FF1CF86957105610581
:04119800089408951A
:0E119C0000240A941216130614060506089580
:1011AA000DC0CBDF30F0F5DF20F031F49F3F11F4B2
:1011BA001EF4CACF0EF4E095E7FBB2CFE92FC7DFE2
:1011CA0080F3BA17620773078407950718F071F45A
:1011DA009EF5ACCF0EF4E0950B2EBA2FA02D0B0185
:1011EA00B90190010C01CA01A0011124FF27591B62
:1011FA0099F0593F50F4503E68F11A16F040A22F68
:10120A00232F342F4427585FF3CF469537952795D8
:10121A00A795F0405395C9F77EF41F16BA0B620BD7
:10122A00730B840BBAF09150A1F0FF0FBB1F661F1E
:10123A00771F881FC2F70EC0BA0F621F731F841F61
:10124A0048F4879577956795B795F7959E3F08F087
:10125A00B3CF9395880F08F09927EE0F9795879546
:02126A000895E5
:10126C00262FF999FECF1FBA92BD81BD20BD0FB6B6
:0C127C00F894FA9AF99A0FBE01960895B2
:06128800F1DF272FF0CF7B
:10128E00BA01A901DC01CB01FC01F999FECF06C020
:10129E00F2BDE1BDF89A319600B40D924150504026
:0412AE00B8F70895F0
:0412B2000C94000098
:0112B6003007
:0112B7003006
:1012B800F6FFFEFF0A000A00F6FFFEFF0A00F6FF2F
:1012C800F6FFFEFFF6FF0A00F6FF0A00F6FFF6FF3C
:0212D8006400B0
:0412DA006666663F9F
:0412DE000000003FCD
:0412E200CDCCCC3D66
:0412E6000100000003
:00000001FF
