:100000003CC000000C945C0A0C945C0A0C945C0AE2
:100010000C945C0A0C945C0A0C945C0A0C945C0AC8
:100020000C945C0A0C945C0A0C945C0A0C945C0AB8
:100030000C945C0A0C945C0A0C945C0A0C945C0AA8
:100040000C945C0A0C945C0A0C945C0A0C945C0A98
:100050000C945C0A0C945C0A0C945C0A0C945C0A88
:100060000C945C0A0C945C0A0100011980011901CE
:100070004D0014BC014D0193800011241FBECFEF31
:10008000D8E0DEBFCDBFE8E6F0E040E017C0B591B4
:10009000A59135912591059107FD0CC0959185910C
:1000A000EF01F92FE82F05900D92A217B307D9F7AA
:1000B000FE0104C01D92A217B307E1F7E937F40768
:0A00C00031F703D000C0F894FFCF21
:1000CA00109201011092000141E065E081E04CD0FC
:1000DA0041E062E083E048D041E063E083E044D05D
:1000EA0041E064E083E040D041E065E083E03CD059
:1000FA0041E067E083E038D080E0A0D12FEF83EDC4
:10010A0090E3215080409040E1F700C0000080D188
:10011A0060E875E280E090E0C5D0C1E0D0E080916F
:10012A00000190910101892B69F08091C600813309
:10013A0081F08233A1F7E7D080910001909101010B
:10014A00892B99F75ED1D0930101C09300018133C5
:10015A0081F740E065E081E056D089D141E065E071
:08016A0081E051D036D3DBCF58
:100172009FEF980F933090F4683080F441110FC0D4
:10018200823091F18330D9F42AB181E090E001C04C
:10019200880F6A95EAF7809582238AB908954130DB
:1001A200E9F78230B9F0833049F52AB181E090E075
:1001B20001C0880F6A95EAF7822B8AB9EFCF24B182
:1001C20081E090E001C0880F6A95EAF7809582236A
:1001D20084B9089527B181E090E001C0880F6A9543
:1001E200EAF7822B87B9089527B181E090E001C038
:1001F200880F6A95EAF780958223F4CF24B181E0D3
:0E02020090E001C0880F6A95EAF7822BE1CFE9
:100210009FEF980F9330A0F4683090F4413089F04C
:1002200041110EC0823079F18330C9F42BB181E0E5
:1002300090E001C0880F6A95EAF7809582238BB918
:100240000895823059F18330A9F42BB181E090E018
:1002500001C0880F6A95EAF7822B8BB9F1CF25B1DF
:1002600081E090E001C0880F6A95EAF780958223CB
:1002700085B9089525B181E090E001C0880F6A95A5
:10028000EAF7822BF5CF28B181E090E001C0880F1A
:100290006A95EAF78095822388B9089528B181E0AC
:0E02A00090E001C0880F6A95EAF7822BF5CF37
:1002AE00E1ECF0E020812861208326E02093C2005B
:1002BE00DC01CB01880F991FAA1FBB1F880F991F46
:1002CE00AA1FBB1F9C01AD01220F331F441F551FD8
:1002DE00220F331F441F551F60E074E284EF90E03D
:1002EE0095D38FEF820F8093C400DA01C901019775
:1002FE00A109B109892F9A2FAB2FBB278093C50077
:02030E00089550
:10031000CF92DF92EF92FF920F931F93CF93DF93D1
:1003200080E091D038EEC32E33E0D32E44E6E42EA5
:10033000F12C0AE010E08091C600813309F448C036
:10034000B3D3AC019C013695279536952795369504
:100350002795A5ECB0E299D3929582958F70892765
:100360009F7089278C9D90018D9D300D9C9D300D37
:100370001124CA01821B930BB70174D3EC0180E3F3
:10038000860F6DD3CE01B8016DD3C82F80E3860FE1
:1003900066D380E38C0F63D339D0C82F80931A01C2
:1003A00080911901C81709F4C6CFC13309F4C3CF2E
:1003B000C533B9F010F5C333F1F0C43309F0BBCF46
:1003C000AAD3C09319018091C600813309F0B8CF38
:1003D000DF91CF911F910F91FF90EF90DF90CF9021
:1003E0000895A9D32FEF88EF95E1215080409040E8
:1003F000E1F700C00000AFD3E4CFC63329F0C73324
:0C04000009F099CFB8D3DDCFC6D3ECCF04
:0E040C008091C00087FFFCCF8091C60008954C
:10041A0041E066E083E0A8DE84B5816084BD84B5EE
:10042A00826084BD85B5886085BD84B5806484BDDD
:0C043A0085B5816085BD80E587BD089513
:10044600CF93C82FB5D3CC2389F0CA3561F0C63A0D
:1004560011F0CF91089585E990E0909389008093FB
:100466008800CF91089587E592E0F7CF8DE591E07A
:02047600F4CFC1
:100478002F923F924F925F926F927F928F929F92AC
:10048800AF92BF92CF92DF92EF92FF920F931F939A
:10049800CF93DF93CDB7DEB764970FB6F894DEBF7E
:1004A8000FBECDBF80913B0190913C0118161906F3
:1004B8000CF013C18091C600823309F40EC1412C9F
:1004C800512C34E6632E712C1E0121E1220E311CC1
:1004D8003ED3E6D2909306018093050188970CF0ED
:1004E8005BC181E08093020180918F01909190011E
:1004F80001968370907897FD52C190930C01809378
:100508000B01C7D3B301AAD2BC01990F880B990B71
:10051800D2D320E030E048EC52E4E7D49B01AC01B0
:1005280060930D0170930E0180930F019093100159
:1005380060913D0170913E0180913F019091400191
:10054800B4D387FF31C1A0918F01B0919001A295DA
:10055800B295B07FBA27A07FBA27A35BBE4FFE0132
:1005680031964D915D916D917D9141935193619338
:100578007193E215F305A9F7C980DA809B81998BFD
:10058800EC81EA8B7E01F5E0EF0EF11C01E010E052
:10059800F70181909190A190B1907F0196014989CE
:1005A8005A89C501B40181D318162CF40B8B1C8B06
:1005B8006401A98ABA8A0F5F1F4F0430110541F7F9
:1005C800FB89F0938D012C8920938E018F2F922F18
:1005D8008230910509F4F5C08330910509F4F3C020
:1005E800019709F494D28FE794E8EEE181509040A6
:1005F800E040E1F700C00000BAD2E0918F01F0912D
:100608009001EE0FFF1FEE0FFF1F80918D0190915B
:100618008E01E80FF91FEE0FFF1FE55EFE4F808188
:1006280091819093040180930301FFE926E881E01A
:10063800F15020408040E1F700C000008090410167
:1006480090904201A0904301B0904401C0904501B0
:10065800D0904601E0904701F090480100910301D5
:100668001091040120918D0130918E0140910B0170
:1006780050910C0160918F01709190018DE491E08F
:1006880055D380910B0190910C0190939001809328
:100698008F0128E431EE4AE75FE360913D017091F4
:1006A8003E0180913F01909140011DD460933D012E
:1006B80070933E0180933F01909340019FEF491A48
:1006C800590A80913B0190913C01481659062CF437
:1006D8008091C600823309F0FBCEE2D1AC019C01C7
:1006E800369527953695279536952795A5ECB0E24A
:1006F800C8D1929582958F7089279F70892768EE57
:1007080073E0869F9001879F300D969F300D1124CE
:10071800CA01821B930B909392018093910104E686
:1007280010E0B8019BD180E3860F95D180919101AB
:1007380090919201B80192D1909392018093910186
:100748000AE010E0B8018AD180E3860F84D1809155
:10075800910190919201B80181D180939101909378
:100768009201805D78D164960FB6F894DEBF0FBE13
:10077800CDBFDF91CF911F910F91FF90EF90DF9048
:10078800CF90BF90AF909F908F907F906F905F9029
:100798004F903F902F90ABC31092020199CE0197D2
:1007A8008C6F9F6F0196A9CE74D28370907897FD55
:1007B8000CC090938E0180938D018230910509F0D1
:1007C8000BCFB5D110CFE3D10ECF01978C6F9F6FB0
:0407D8000196EFCFC8
:1007DC002F923F924F925F926F927F928F929F9245
:1007EC00AF92BF92CF92DF92EF92FF920F931F9333
:1007FC00CF93DF93CDB7DEB762970FB6F894DEBF19
:10080C000FBECDBF98D311E05E0121E1A20EB11C49
:10081C008091C600823309F4C4C097D13FD1909324
:10082C0006018093050188970CF0D4C01093020147
:10083C009CD16FEB77E289E0615070408040E1F72A
:10084C0000C000009FD39093900180938F018295FC
:10085C009295907F9827807F9827DC01A35BBE4FF1
:10086C00FE0131964D915D916D917D914193519326
:10087C0061937193EA15FB05A9F779808A809B80B7
:10088C000C816E0195E0C90ED11CEE24E394F12C81
:10089C00BA8AA98AB02E072DF60141905190619029
:1008AC0071906F01202F382D492D5B2DC301B201A2
:1008BC00FAD118162CF41701042D852C962CB72C74
:1008CC00FFEFEF1AFF0A24E0E216F10429F7A988DA
:1008DC00BA8830928E0120928D0162E02616310486
:1008EC0009F488C073E02716310409F476C081E05E
:1008FC002816310409F409D18FE794E8EEE1815010
:10090C009040E040E1F700C000002FD1C7D0AC010F
:10091C009C01369527953695279536952795A5EC08
:10092C00B0E2ADD0929582958F7089279F70892700
:10093C0068EE73E0869F9001879F300D969F300D77
:10094C001124CA01821B930B909392018093910105
:10095C0064E670E081D080E3860F7BD080919101BA
:10096C009091920164E670E077D09093920180931D
:10097C0091016AE070E070D080E3860F6AD08091BC
:10098C009101909192016AE070E066D080939101A0
:10099C0090939201805D5DD08091C600823309F006
:1009AC003CCF62960FB6F894DEBF0FBECDBFDF9181
:1009BC00CF911F910F91FF90EF90DF90CF90BF9050
:1009CC00AF909F908F907F906F905F904F903F90E3
:1009DC002F900895109202011BCF97D02FEB67E256
:1009EC0079E0215060407040E1F700C00000BDD0BC
:1009FC00CCD082CF8AD09FEBE7E2F9E09150E04077
:0E0A0C00F040E1F700C00000B0D08FD075CFF1
:100A1A00A1E21A2EAA1BBB1BFD010DC0AA1FBB1FF8
:100A2A00EE1FFF1FA217B307E407F50720F0A21B6A
:100A3A00B30BE40BF50B661F771F881F991F1A94D7
:100A4A0069F760957095809590959B01AC01BD0101
:040A5A00CF0108952B
:060A5E008093C60008951C
:100A640097FB072E16F4009406D077FD08D010D318
:100A740007FC05D03EF4909581959F4F089570959D
:060A840061957F4F08950B
:100A8A00A29FB001B39FC001A39F700D811D1124C5
:0E0A9A00911DB29F700D811D1124911D0895B4
:100AA80010928000B59A41E067E083E0ADDB8FECFF
:100AB80097E00197F1F700C0000040E067E083E0AD
:100AC800A3DB82EC80938100B59BFECF80918600EA
:100AD80090918700B59A22E820938100B59BFECFBC
:100AE8002091860030918700B59A10928500109267
:100AF800840010928100281B390BA8E2B7E8C1DFF7
:0E0B080020E039E04DE350E084DFC90108959C
:100B160041E062E083E079DB40E063E083E075DB9F
:100B260041E065E083E071DB40E064E083E06DCBAB
:100B360040E062E083E069DB41E063E083E065DB9F
:100B460041E065E083E061DB40E064E083E05DCBAB
:100B560040E062E083E059DB41E063E083E055DB9F
:100B660040E065E083E051DB41E064E083E04DCBAB
:100B760040E062E083E049DB40E063E083E045DBA0
:100B860040E064E083E041DB40E065E083E03DCBAC
:100B960041E062E083E039DB40E063E083E035DB9F
:100BA60040E065E083E031DB41E064E083E02DCBAB
:100BB60041E061E081E0DADAE1E8F0E0808181603D
:100BC600808380818260808380818B7F8083A0E8A0
:100BD600B0E08C9182608C93808188608083808174
:100BE600806180838C918F7B8C938C9180688C93B1
:100BF60087E893E1909387008093860010928500A2
:060C060010928400089525
:100C0C008F929F92AF92BF92CF92DF92EF92FF9210
:100C1C00CF93DF93EC01688179818A819B81611587
:100C2C0071058105910521F464E279ED8BE597E07E
:100C3C002DE133EF41E050E04BD249015A019B01C9
:100C4C00AC01A7EAB1E434D26B017C01ACEEB4EF99
:100C5C00A501940139D2DC01CB018C0D9D1DAE1D7B
:100C6C00BF1DB7FF03C00197A109B04888839983C2
:100C7C00AA83BB839F77DF91CF91FF90EF90DF909A
:100C8C00CF90BF90AF909F908F900895B9CF89E48B
:100C9C0091E0B6CFA0E0B0E0E9E4F1E0808391838D
:060CAC00A283B38308954A
:080CB20028D208F48FEF089529
:100CBA00E89409C097FB3EF49095809570956195EC
:100CCA007F4F8F4F9F4F9923A9F0F92F96E9BB27A2
:100CDA009395F695879577956795B795F111F8CF1E
:100CEA00FAF4BB0F11F460FF1BC06F5F7F4F8F4F89
:100CFA009F4F16C0882311F096E911C0772321F07F
:100D0A009EE8872F762F05C0662371F096E8862F16
:100D1A0070E060E02AF09A95660F771F881FDAF76D
:0A0D2A00880F9695879597F90895B4
:100D34002F923F924F925F926F927F928F929F92E7
:100D4400AF92BF92CF92DF92EF92FF920F931F93D5
:100D5400CF93DF93CDB7DEB76C970FB6F894DEBFB1
:100D64000FBECDBF1C8F0B8F62957295707F762757
:100D7400607F7627220F331F220F331F620F731FEA
:100D8400860F971F9A8F898FDC018D919D910D900D
:100D9400BC91A02D8D8B9E8BAF8BB88F809311014E
:100DA40090931201A0931301B0931401DA01A29558
:100DB400B295B07FBA27A07FBA27A35BBE4FFE01CE
:100DC40031962E0121E1420E511C4D915D916D91A0
:100DD4007D914193519361937193E415F505A9F7BE
:100DE40019810A813B802C803E0135E0630E711C21
:100DF4005C8A4B8A398A2A8AD3012D903D904D9082
:100E04005D903D01212F302F49895A89C201B101DA
:100E14004EDF181624F4122D032D498A5A8AEB89C1
:100E2400FC896E167F0641F739882A88812F902F16
:100E3400A32DB22D8093150190931601A093170151
:100E4400B09318012B8D3C8DB901330F880B990B8E
:100E540034DF2B013C01212F302F432D522DC501AE
:100E6400B40143D09B01AC01C301B2016ED1A7010F
:100E740096013BD04B015C01A701960160E070E054
:100E840080E89FE361D12D893E894F89588D2DD00B
:100E94009B01AC01C501B40158D160930701709363
:100EA40008018093090190930A01A98DBA8D6D936D
:100EB4007D938D939C9313976C960FB6F894DEBF35
:100EC4000FBECDBFDF91CF911F910F91FF90EF9097
:100ED400DF90CF90BF90AF909F908F907F906F9056
:0A0EE4005F904F903F902F9008950B
:040EEE0044D132C1F8
:040EF200A4D130C196
:100EF600EF92FF920F931F93CF93DF93C0E0D0E062
:100F06008E01035B1E4F7E01F0E1EF0EF11CF8012E
:100F160041915191619171918F01CE01F3D1249646
:100F2600EC16FD06A1F7E701C034D10549F7DF91BC
:0C0F3600CF911F910F91FF90EF90089554
:100F4200EF92FF920F931F93CF93DF93C0E0D0E015
:100F52008E01035B1E4F7E01F0E1EF0EF11CBE011C
:100F620080E8D7D1F80161937193819391938F01B6
:100F72002496EC16FD0699F7E701C034D10541F736
:0E0F8200DF91CF911F910F91FF90EF90089596
:100F9000CF938AE558DA2FE382E49FE02150804026
:100FA0009040E1F700C000007FDD90930601809340
:100FB000050188973CF5C1E0C093020186EA43DA57
:100FC0002FE382E49FE0215080409040E1F700C091
:100FD00000006ADD909306018093050188970CF06C
:100FE00048C0C093020180E02EDA2FE382E49FE044
:100FF000215080409040E1F700C0000083E090E085
:10100000CF9108951092020186EA1DDA2FE382E45F
:101010009FE0215080409040E1F700C0000044DD97
:10102000909306018093050188978CF0109202013D
:1010300080E009DA2FE382E49FE021508040904075
:10104000E1F700C0000080E090E0CF91089581E0DA
:101050008093020180E0F7D92FE382E49FE02150E2
:1010600080409040E1F700C0000081E090E0CF9127
:1010700008951092020180E0E6D92FE382E49FE018
:10108000215080409040E1F700C0000082E090E0F5
:04109000CF9108955F
:10109400AA1BBB1B51E107C0AA1FBB1FA617B7079A
:1010A40010F0A61BB70B881F991F5A95A9F78095B6
:0810B4009095BC01CD010895E7
:1010BC00E6DCA59F900DB49F900DA49F800D911D13
:0410CC00112408954E
:0C10D000B7FFF4CFF3DF821B930B0895F1
:1010DC00052E97FB16F400941DD157FD05D097DC17
:1010EC0007FC02D046F416C15095409530952195D9
:0810FC003F4F4F4F5F4F089575
:10110400990F0008550FAA0BE0E8FEEF1616170614
:10111400E807F907C0F012161306E407F50798F07C
:10112400621B730B840B950B39F40A2661F0232B95
:10113400242B252B21F408950A2609F4A140A69511
:081144008FEF811D811D08954C
:0A114C005058BB27AA27EED000C0C0
:10115600092E0394000C11F4882352F0BB0F40F4BF
:10116600BF2B11F460FF04C06F5F7F4F8F4F9F4FFF
:021176000895DA
:101178000AC074D128F049D118F0952309F035C177
:1011880041C1112439C148D1A0F3959FD1F3950FDE
:1011980050E0551F629FF001729FBB27F00DB11DF3
:1011A800639FAA27F00DB11DAA1F649F6627B00D83
:1011B800A11D661F829F2227B00DA11D621F739F6C
:1011C800B00DA11D621F839FA00D611D221F749F7A
:1011D8003327A00D611D231F849F600D211D822FC1
:1011E800762F6A2F11249F5750408AF0E1F0882308
:1011F8004AF0EE0FFF1FBB1F661F771F881F915015
:101208005040A9F79E3F510570F0EFC0F5C05F3F11
:10121800ECF3983EDCF3869577956795B795F79547
:10122800E7959F5FC1F7FE2B880F911D96958795CF
:0412380097F9089585
:10123C000BC0E9D040F010D130F021F45F3F19F031
:10124C00D2C05111D7C0DCC0E5D098F39923C9F3B3
:10125C005523B1F3951B550BBB27AA2762177307B0
:10126C00840738F09F5F5F4F220F331F441FAA1F64
:10127C00A9F333D00E2E3AF0E0E830D09150504024
:10128C00E695001CCAF729D0FE2F27D0660F771FD2
:10129C00881FBB1F261737074807AB07B0E809F0B4
:1012AC00BB0B802DBF01FF2793585F4F2AF09E3F49
:1012BC00510568F098C09EC05F3FECF3983EDCF39C
:1012CC00869577956795B795F7959F5FC9F7880FC2
:1012DC00911D9695879597F90895E1E0660F771F14
:1012EC00881FBB1F621773078407BA0720F0621BA5
:0E12FC00730B840BBA0BEE1F88F7E095089574
:0A130A00242FB3D0252FB1D0BDC0B1
:0C131400CB01A6E1B0E044E050E0BEC018
:1013200090958095709561957F4F8F4F9F4F089551
:101330000DC098D030F06DD020F031F49F3F11F403
:101340001EF464C00EF4E095E7FB53C0E92F68D0AB
:1013500080F3BA17620773078407950718F071F4D2
:101360009EF54DC00EF4E0950B2EBA2FA02D0B016B
:10137000B90190010C01CA01A0011124FF27591BDA
:1013800099F0593F50F4503E68F11A16F040A22FE0
:10139000232F342F4427585FF3CF46953795279551
:1013A000A795F0405395C9F77EF41F16BA0B620B50
:1013B000730B840BBAF09150A1F0FF0FBB1F661F97
:1013C000771F881FC2F70EC0BA0F621F731F841FDA
:1013D00048F4879577956795B795F7959E3F08F000
:1013E000B3CF9395880F08F09927EE0F97958795BF
:0213F00008955E
:0C13F20097F99F6780E870E060E00895C4
:0E13FE00E894BB2766277727CB0197F908955F
:06140C009FEF80EC089543
:0E14120000240A941216130614060506089507
:1014200057FD9058440F551F59F05F3F71F0479595
:10143000880F97FB991F61F09F3F79F0879508957A
:10144000121613061406551FF2CF4695F1DF08C099
:10145000161617061806991FF1CF869571056105B6
:04146000089408954F
:0E14640000240A9416161706180609060895A5
:10147200262FF999FECF1FBA92BD81BD20BD0FB6AE
:0C148200F894FA9AF99A0FBE01960895AA
:06148E00F1DF272FF0CF73
:10149400BA01A901DC01CB01FC01F999FECF06C018
:1014A400F2BDE1BDF89A319600B40D92415050401E
:0414B400B8F70895E8
:0414B8000C94000090
:0114BC0030FF
:0114BD0030FE
:1014BE00F6FFFEFF0A000A00F6FFFEFF0A00F6FF27
:1014CE00F6FFFEFFF6FF0A00F6FF0A00F6FFF6FF34
:0214DE006400A8
:0414E0006666663F97
:0414E4000000003FC5
:0414E800CDCCCC3D5E
:0414EC0001000000FB
:00000001FF
